{
  "_format": "hh-sol-artifact-1",
  "contractName": "pydo",
  "sourceName": "contracts/PyDO.sol",
  "abi": [
    {
      "inputs": [],
      "stateMutability": "nonpayable",
      "type": "constructor"
    },
    {
      "anonymous": false,
      "inputs": [
        {
          "indexed": true,
          "internalType": "address",
          "name": "owner",
          "type": "address"
        },
        {
          "indexed": true,
          "internalType": "address",
          "name": "approved",
          "type": "address"
        },
        {
          "indexed": true,
          "internalType": "uint256",
          "name": "tokenId",
          "type": "uint256"
        }
      ],
      "name": "Approval",
      "type": "event"
    },
    {
      "anonymous": false,
      "inputs": [
        {
          "indexed": true,
          "internalType": "address",
          "name": "owner",
          "type": "address"
        },
        {
          "indexed": true,
          "internalType": "address",
          "name": "operator",
          "type": "address"
        },
        {
          "indexed": false,
          "internalType": "bool",
          "name": "approved",
          "type": "bool"
        }
      ],
      "name": "ApprovalForAll",
      "type": "event"
    },
    {
      "anonymous": false,
      "inputs": [
        {
          "indexed": true,
          "internalType": "address",
          "name": "previousOwner",
          "type": "address"
        },
        {
          "indexed": true,
          "internalType": "address",
          "name": "newOwner",
          "type": "address"
        }
      ],
      "name": "OwnershipTransferred",
      "type": "event"
    },
    {
      "anonymous": false,
      "inputs": [
        {
          "indexed": true,
          "internalType": "address",
          "name": "from",
          "type": "address"
        },
        {
          "indexed": true,
          "internalType": "address",
          "name": "to",
          "type": "address"
        },
        {
          "indexed": true,
          "internalType": "uint256",
          "name": "tokenId",
          "type": "uint256"
        }
      ],
      "name": "Transfer",
      "type": "event"
    },
    {
      "inputs": [
        {
          "internalType": "address",
          "name": "to",
          "type": "address"
        },
        {
          "internalType": "uint256",
          "name": "tokenId",
          "type": "uint256"
        }
      ],
      "name": "approve",
      "outputs": [],
      "stateMutability": "nonpayable",
      "type": "function"
    },
    {
      "inputs": [
        {
          "internalType": "address",
          "name": "to",
          "type": "address"
        },
        {
          "internalType": "uint256",
          "name": "tokenId",
          "type": "uint256"
        }
      ],
      "name": "approveTransfer",
      "outputs": [],
      "stateMutability": "nonpayable",
      "type": "function"
    },
    {
      "inputs": [
        {
          "internalType": "address",
          "name": "owner",
          "type": "address"
        }
      ],
      "name": "balanceOf",
      "outputs": [
        {
          "internalType": "uint256",
          "name": "",
          "type": "uint256"
        }
      ],
      "stateMutability": "view",
      "type": "function"
    },
    {
      "inputs": [],
      "name": "count",
      "outputs": [
        {
          "internalType": "uint256",
          "name": "",
          "type": "uint256"
        }
      ],
      "stateMutability": "view",
      "type": "function"
    },
    {
      "inputs": [
        {
          "internalType": "uint256",
          "name": "tokenId",
          "type": "uint256"
        }
      ],
      "name": "getApproved",
      "outputs": [
        {
          "internalType": "address",
          "name": "",
          "type": "address"
        }
      ],
      "stateMutability": "view",
      "type": "function"
    },
    {
      "inputs": [
        {
          "internalType": "address",
          "name": "owner",
          "type": "address"
        },
        {
          "internalType": "address",
          "name": "operator",
          "type": "address"
        }
      ],
      "name": "isApprovedForAll",
      "outputs": [
        {
          "internalType": "bool",
          "name": "",
          "type": "bool"
        }
      ],
      "stateMutability": "view",
      "type": "function"
    },
    {
      "inputs": [
        {
          "internalType": "string",
          "name": "uri",
          "type": "string"
        }
      ],
      "name": "isContentOwned",
      "outputs": [
        {
          "internalType": "bool",
          "name": "",
          "type": "bool"
        }
      ],
      "stateMutability": "view",
      "type": "function"
    },
    {
      "inputs": [],
      "name": "name",
      "outputs": [
        {
          "internalType": "string",
          "name": "",
          "type": "string"
        }
      ],
      "stateMutability": "view",
      "type": "function"
    },
    {
      "inputs": [],
      "name": "owner",
      "outputs": [
        {
          "internalType": "address",
          "name": "",
          "type": "address"
        }
      ],
      "stateMutability": "view",
      "type": "function"
    },
    {
      "inputs": [
        {
          "internalType": "uint256",
          "name": "tokenId",
          "type": "uint256"
        }
      ],
      "name": "ownerOf",
      "outputs": [
        {
          "internalType": "address",
          "name": "",
          "type": "address"
        }
      ],
      "stateMutability": "view",
      "type": "function"
    },
    {
      "inputs": [
        {
          "internalType": "address",
          "name": "recipient",
          "type": "address"
        },
        {
          "internalType": "string",
          "name": "metadataURI",
          "type": "string"
        }
      ],
      "name": "payToMint",
      "outputs": [
        {
          "internalType": "uint256",
          "name": "",
          "type": "uint256"
        }
      ],
      "stateMutability": "nonpayable",
      "type": "function"
    },
    {
      "inputs": [],
      "name": "renounceOwnership",
      "outputs": [],
      "stateMutability": "nonpayable",
      "type": "function"
    },
    {
      "inputs": [
        {
          "internalType": "address",
          "name": "to",
          "type": "address"
        },
        {
          "internalType": "string",
          "name": "uri",
          "type": "string"
        }
      ],
      "name": "safeMint",
      "outputs": [],
      "stateMutability": "nonpayable",
      "type": "function"
    },
    {
      "inputs": [
        {
          "internalType": "address",
          "name": "from",
          "type": "address"
        },
        {
          "internalType": "address",
          "name": "to",
          "type": "address"
        },
        {
          "internalType": "uint256",
          "name": "tokenId",
          "type": "uint256"
        }
      ],
      "name": "safeTransferFrom",
      "outputs": [],
      "stateMutability": "nonpayable",
      "type": "function"
    },
    {
      "inputs": [
        {
          "internalType": "address",
          "name": "from",
          "type": "address"
        },
        {
          "internalType": "address",
          "name": "to",
          "type": "address"
        },
        {
          "internalType": "uint256",
          "name": "tokenId",
          "type": "uint256"
        },
        {
          "internalType": "bytes",
          "name": "data",
          "type": "bytes"
        }
      ],
      "name": "safeTransferFrom",
      "outputs": [],
      "stateMutability": "nonpayable",
      "type": "function"
    },
    {
      "inputs": [
        {
          "internalType": "address",
          "name": "operator",
          "type": "address"
        },
        {
          "internalType": "bool",
          "name": "approved",
          "type": "bool"
        }
      ],
      "name": "setApprovalForAll",
      "outputs": [],
      "stateMutability": "nonpayable",
      "type": "function"
    },
    {
      "inputs": [
        {
          "internalType": "bytes4",
          "name": "interfaceId",
          "type": "bytes4"
        }
      ],
      "name": "supportsInterface",
      "outputs": [
        {
          "internalType": "bool",
          "name": "",
          "type": "bool"
        }
      ],
      "stateMutability": "view",
      "type": "function"
    },
    {
      "inputs": [],
      "name": "symbol",
      "outputs": [
        {
          "internalType": "string",
          "name": "",
          "type": "string"
        }
      ],
      "stateMutability": "view",
      "type": "function"
    },
    {
      "inputs": [
        {
          "internalType": "uint256",
          "name": "tokenId",
          "type": "uint256"
        }
      ],
      "name": "tokenURI",
      "outputs": [
        {
          "internalType": "string",
          "name": "",
          "type": "string"
        }
      ],
      "stateMutability": "view",
      "type": "function"
    },
    {
      "inputs": [
        {
          "internalType": "address",
          "name": "from",
          "type": "address"
        },
        {
          "internalType": "address",
          "name": "to",
          "type": "address"
        },
        {
          "internalType": "uint256",
          "name": "tokenId",
          "type": "uint256"
        }
      ],
      "name": "transferFrom",
      "outputs": [],
      "stateMutability": "nonpayable",
      "type": "function"
    },
    {
      "inputs": [
        {
          "internalType": "address",
          "name": "from",
          "type": "address"
        },
        {
          "internalType": "address",
          "name": "to",
          "type": "address"
        },
        {
          "internalType": "uint256",
          "name": "transferTokenId",
          "type": "uint256"
        }
      ],
      "name": "transferNFT",
      "outputs": [],
      "stateMutability": "nonpayable",
      "type": "function"
    },
    {
      "inputs": [
        {
          "internalType": "address",
          "name": "newOwner",
          "type": "address"
        }
      ],
      "name": "transferOwnership",
      "outputs": [],
      "stateMutability": "nonpayable",
      "type": "function"
    }
  ],
  "bytecode": "0x60806040523480156200001157600080fd5b506040518060400160405280600481526020017f5079444f000000000000000000000000000000000000000000000000000000008152506040518060400160405280600381526020017f50444f0000000000000000000000000000000000000000000000000000000000815250816000908051906020019062000096929190620001a6565b508060019080519060200190620000af929190620001a6565b505050620000d2620000c6620000d860201b60201c565b620000e060201b60201c565b620002bb565b600033905090565b6000600760009054906101000a900473ffffffffffffffffffffffffffffffffffffffff16905081600760006101000a81548173ffffffffffffffffffffffffffffffffffffffff021916908373ffffffffffffffffffffffffffffffffffffffff1602179055508173ffffffffffffffffffffffffffffffffffffffff168173ffffffffffffffffffffffffffffffffffffffff167f8be0079c531659141344cd1fd0a4f28419497f9722a3daafe3b4186f6b6457e060405160405180910390a35050565b828054620001b49062000285565b90600052602060002090601f016020900481019282620001d8576000855562000224565b82601f10620001f357805160ff191683800117855562000224565b8280016001018555821562000224579182015b828111156200022357825182559160200191906001019062000206565b5b50905062000233919062000237565b5090565b5b808211156200025257600081600090555060010162000238565b5090565b7f4e487b7100000000000000000000000000000000000000000000000000000000600052602260045260246000fd5b600060028204905060018216806200029e57607f821691505b60208210811415620002b557620002b462000256565b5b50919050565b612fec80620002cb6000396000f3fe608060405234801561001057600080fd5b50600436106101425760003560e01c8063715018a6116100b8578063b88d4fde1161007c578063b88d4fde14610375578063c87b56dd14610391578063d204c45e146103c1578063e985e9c5146103dd578063f2fde38b1461040d578063fa02c4b71461042957610142565b8063715018a6146102e35780638da5cb5b146102ed57806395d89b411461030b5780639f1cabc614610329578063a22cb4651461035957610142565b806323b872dd1161010a57806323b872dd146101ff57806342842e0e1461021b578063615fd9e2146102375780636352211e1461026757806369e9cae11461029757806370a08231146102b357610142565b806301ffc9a71461014757806306661abd1461017757806306fdde0314610195578063081812fc146101b3578063095ea7b3146101e3575b600080fd5b610161600480360381019061015c9190611df2565b610445565b60405161016e9190611e3a565b60405180910390f35b61017f610527565b60405161018c9190611e6e565b60405180910390f35b61019d610538565b6040516101aa9190611f22565b60405180910390f35b6101cd60048036038101906101c89190611f70565b6105ca565b6040516101da9190611fde565b60405180910390f35b6101fd60048036038101906101f89190612025565b610610565b005b61021960048036038101906102149190612065565b610728565b005b61023560048036038101906102309190612065565b610788565b005b610251600480360381019061024c91906121ed565b6107a8565b60405161025e9190611e6e565b60405180910390f35b610281600480360381019061027c9190611f70565b61088a565b60405161028e9190611fde565b60405180910390f35b6102b160048036038101906102ac9190612065565b61093c565b005b6102cd60048036038101906102c89190612249565b61094c565b6040516102da9190611e6e565b60405180910390f35b6102eb610a04565b005b6102f5610a18565b6040516103029190611fde565b60405180910390f35b610313610a42565b6040516103209190611f22565b60405180910390f35b610343600480360381019061033e9190612276565b610ad4565b6040516103509190611e3a565b60405180910390f35b610373600480360381019061036e91906122eb565b610b0f565b005b61038f600480360381019061038a91906123cc565b610b25565b005b6103ab60048036038101906103a69190611f70565b610b87565b6040516103b89190611f22565b60405180910390f35b6103db60048036038101906103d691906121ed565b610b99565b005b6103f760048036038101906103f2919061244f565b610c0a565b6040516104049190611e3a565b60405180910390f35b61042760048036038101906104229190612249565b610c9e565b005b610443600480360381019061043e9190612025565b610d22565b005b60007f80ac58cd000000000000000000000000000000000000000000000000000000007bffffffffffffffffffffffffffffffffffffffffffffffffffffffff1916827bffffffffffffffffffffffffffffffffffffffffffffffffffffffff1916148061051057507f5b5e139f000000000000000000000000000000000000000000000000000000007bffffffffffffffffffffffffffffffffffffffffffffffffffffffff1916827bffffffffffffffffffffffffffffffffffffffffffffffffffffffff1916145b80610520575061051f82610d30565b5b9050919050565b60006105336008610d9a565b905090565b606060008054610547906124be565b80601f0160208091040260200160405190810160405280929190818152602001828054610573906124be565b80156105c05780601f10610595576101008083540402835291602001916105c0565b820191906000526020600020905b8154815290600101906020018083116105a357829003601f168201915b5050505050905090565b60006105d582610da8565b6004600083815260200190815260200160002060009054906101000a900473ffffffffffffffffffffffffffffffffffffffff169050919050565b600061061b8261088a565b90508073ffffffffffffffffffffffffffffffffffffffff168373ffffffffffffffffffffffffffffffffffffffff16141561068c576040517f08c379a000000000000000000000000000000000000000000000000000000000815260040161068390612562565b60405180910390fd5b8073ffffffffffffffffffffffffffffffffffffffff166106ab610df3565b73ffffffffffffffffffffffffffffffffffffffff1614806106da57506106d9816106d4610df3565b610c0a565b5b610719576040517f08c379a0000000000000000000000000000000000000000000000000000000008152600401610710906125f4565b60405180910390fd5b6107238383610dfb565b505050565b610739610733610df3565b82610eb4565b610778576040517f08c379a000000000000000000000000000000000000000000000000000000000815260040161076f90612686565b60405180910390fd5b610783838383610f49565b505050565b6107a383838360405180602001604052806000815250610b25565b505050565b600060016009836040516107bc91906126e2565b908152602001604051809103902060009054906101000a900460ff1660ff16141561081c576040517f08c379a000000000000000000000000000000000000000000000000000000000815260040161081390612745565b60405180910390fd5b60006108286008610d9a565b905061083460086111b0565b600160098460405161084691906126e2565b908152602001604051809103902060006101000a81548160ff021916908360ff16021790555061087684826111c6565b61088081846113a0565b8091505092915050565b6000806002600084815260200190815260200160002060009054906101000a900473ffffffffffffffffffffffffffffffffffffffff169050600073ffffffffffffffffffffffffffffffffffffffff168173ffffffffffffffffffffffffffffffffffffffff161415610933576040517f08c379a000000000000000000000000000000000000000000000000000000000815260040161092a906127b1565b60405180910390fd5b80915050919050565b610947838383610788565b505050565b60008073ffffffffffffffffffffffffffffffffffffffff168273ffffffffffffffffffffffffffffffffffffffff1614156109bd576040517f08c379a00000000000000000000000000000000000000000000000000000000081526004016109b490612843565b60405180910390fd5b600360008373ffffffffffffffffffffffffffffffffffffffff1673ffffffffffffffffffffffffffffffffffffffff168152602001908152602001600020549050919050565b610a0c611414565b610a166000611492565b565b6000600760009054906101000a900473ffffffffffffffffffffffffffffffffffffffff16905090565b606060018054610a51906124be565b80601f0160208091040260200160405190810160405280929190818152602001828054610a7d906124be565b8015610aca5780601f10610a9f57610100808354040283529160200191610aca565b820191906000526020600020905b815481529060010190602001808311610aad57829003601f168201915b5050505050905090565b60006001600983604051610ae891906126e2565b908152602001604051809103902060009054906101000a900460ff1660ff16149050919050565b610b21610b1a610df3565b8383611558565b5050565b610b36610b30610df3565b83610eb4565b610b75576040517f08c379a0000000000000000000000000000000000000000000000000000000008152600401610b6c90612686565b60405180910390fd5b610b81848484846116c5565b50505050565b6060610b9282611721565b9050919050565b610ba1611414565b6000610bad6008610d9a565b9050610bb960086111b0565b610bc38382611834565b610bcd81836113a0565b6001600983604051610bdf91906126e2565b908152602001604051809103902060006101000a81548160ff021916908360ff160217905550505050565b6000600560008473ffffffffffffffffffffffffffffffffffffffff1673ffffffffffffffffffffffffffffffffffffffff16815260200190815260200160002060008373ffffffffffffffffffffffffffffffffffffffff1673ffffffffffffffffffffffffffffffffffffffff16815260200190815260200160002060009054906101000a900460ff16905092915050565b610ca6611414565b600073ffffffffffffffffffffffffffffffffffffffff168173ffffffffffffffffffffffffffffffffffffffff161415610d16576040517f08c379a0000000000000000000000000000000000000000000000000000000008152600401610d0d906128d5565b60405180910390fd5b610d1f81611492565b50565b610d2c8282610610565b5050565b60007f01ffc9a7000000000000000000000000000000000000000000000000000000007bffffffffffffffffffffffffffffffffffffffffffffffffffffffff1916827bffffffffffffffffffffffffffffffffffffffffffffffffffffffff1916149050919050565b600081600001549050919050565b610db181611852565b610df0576040517f08c379a0000000000000000000000000000000000000000000000000000000008152600401610de7906127b1565b60405180910390fd5b50565b600033905090565b816004600083815260200190815260200160002060006101000a81548173ffffffffffffffffffffffffffffffffffffffff021916908373ffffffffffffffffffffffffffffffffffffffff160217905550808273ffffffffffffffffffffffffffffffffffffffff16610e6e8361088a565b73ffffffffffffffffffffffffffffffffffffffff167f8c5be1e5ebec7d5bd14f71427d1e84f3dd0314c0f7b2291e5b200ac8c7c3b92560405160405180910390a45050565b600080610ec08361088a565b90508073ffffffffffffffffffffffffffffffffffffffff168473ffffffffffffffffffffffffffffffffffffffff161480610f025750610f018185610c0a565b5b80610f4057508373ffffffffffffffffffffffffffffffffffffffff16610f28846105ca565b73ffffffffffffffffffffffffffffffffffffffff16145b91505092915050565b8273ffffffffffffffffffffffffffffffffffffffff16610f698261088a565b73ffffffffffffffffffffffffffffffffffffffff1614610fbf576040517f08c379a0000000000000000000000000000000000000000000000000000000008152600401610fb690612967565b60405180910390fd5b600073ffffffffffffffffffffffffffffffffffffffff168273ffffffffffffffffffffffffffffffffffffffff16141561102f576040517f08c379a0000000000000000000000000000000000000000000000000000000008152600401611026906129f9565b60405180910390fd5b61103a8383836118be565b611045600082610dfb565b6001600360008573ffffffffffffffffffffffffffffffffffffffff1673ffffffffffffffffffffffffffffffffffffffff16815260200190815260200160002060008282546110959190612a48565b925050819055506001600360008473ffffffffffffffffffffffffffffffffffffffff1673ffffffffffffffffffffffffffffffffffffffff16815260200190815260200160002060008282546110ec9190612a7c565b92505081905550816002600083815260200190815260200160002060006101000a81548173ffffffffffffffffffffffffffffffffffffffff021916908373ffffffffffffffffffffffffffffffffffffffff160217905550808273ffffffffffffffffffffffffffffffffffffffff168473ffffffffffffffffffffffffffffffffffffffff167fddf252ad1be2c89b69c2b068fc378daa952ba7f163c4a11628f55a4df523b3ef60405160405180910390a46111ab8383836118c3565b505050565b6001816000016000828254019250508190555050565b600073ffffffffffffffffffffffffffffffffffffffff168273ffffffffffffffffffffffffffffffffffffffff161415611236576040517f08c379a000000000000000000000000000000000000000000000000000000000815260040161122d90612b1e565b60405180910390fd5b61123f81611852565b1561127f576040517f08c379a000000000000000000000000000000000000000000000000000000000815260040161127690612b8a565b60405180910390fd5b61128b600083836118be565b6001600360008473ffffffffffffffffffffffffffffffffffffffff1673ffffffffffffffffffffffffffffffffffffffff16815260200190815260200160002060008282546112db9190612a7c565b92505081905550816002600083815260200190815260200160002060006101000a81548173ffffffffffffffffffffffffffffffffffffffff021916908373ffffffffffffffffffffffffffffffffffffffff160217905550808273ffffffffffffffffffffffffffffffffffffffff16600073ffffffffffffffffffffffffffffffffffffffff167fddf252ad1be2c89b69c2b068fc378daa952ba7f163c4a11628f55a4df523b3ef60405160405180910390a461139c600083836118c3565b5050565b6113a982611852565b6113e8576040517f08c379a00000000000000000000000000000000000000000000000000000000081526004016113df90612c1c565b60405180910390fd5b8060066000848152602001908152602001600020908051906020019061140f929190611ce3565b505050565b61141c610df3565b73ffffffffffffffffffffffffffffffffffffffff1661143a610a18565b73ffffffffffffffffffffffffffffffffffffffff1614611490576040517f08c379a000000000000000000000000000000000000000000000000000000000815260040161148790612c88565b60405180910390fd5b565b6000600760009054906101000a900473ffffffffffffffffffffffffffffffffffffffff16905081600760006101000a81548173ffffffffffffffffffffffffffffffffffffffff021916908373ffffffffffffffffffffffffffffffffffffffff1602179055508173ffffffffffffffffffffffffffffffffffffffff168173ffffffffffffffffffffffffffffffffffffffff167f8be0079c531659141344cd1fd0a4f28419497f9722a3daafe3b4186f6b6457e060405160405180910390a35050565b8173ffffffffffffffffffffffffffffffffffffffff168373ffffffffffffffffffffffffffffffffffffffff1614156115c7576040517f08c379a00000000000000000000000000000000000000000000000000000000081526004016115be90612cf4565b60405180910390fd5b80600560008573ffffffffffffffffffffffffffffffffffffffff1673ffffffffffffffffffffffffffffffffffffffff16815260200190815260200160002060008473ffffffffffffffffffffffffffffffffffffffff1673ffffffffffffffffffffffffffffffffffffffff16815260200190815260200160002060006101000a81548160ff0219169083151502179055508173ffffffffffffffffffffffffffffffffffffffff168373ffffffffffffffffffffffffffffffffffffffff167f17307eab39ab6107e8899845ad3d59bd9653f200f220920489ca2b5937696c31836040516116b89190611e3a565b60405180910390a3505050565b6116d0848484610f49565b6116dc848484846118c8565b61171b576040517f08c379a000000000000000000000000000000000000000000000000000000000815260040161171290612d86565b60405180910390fd5b50505050565b606061172c82610da8565b600060066000848152602001908152602001600020805461174c906124be565b80601f0160208091040260200160405190810160405280929190818152602001828054611778906124be565b80156117c55780601f1061179a576101008083540402835291602001916117c5565b820191906000526020600020905b8154815290600101906020018083116117a857829003601f168201915b5050505050905060006117d6611a5f565b90506000815114156117ec57819250505061182f565b600082511115611821578082604051602001611809929190612da6565b6040516020818303038152906040529250505061182f565b61182a84611a9c565b925050505b919050565b61184e828260405180602001604052806000815250611b04565b5050565b60008073ffffffffffffffffffffffffffffffffffffffff166002600084815260200190815260200160002060009054906101000a900473ffffffffffffffffffffffffffffffffffffffff1673ffffffffffffffffffffffffffffffffffffffff1614159050919050565b505050565b505050565b60006118e98473ffffffffffffffffffffffffffffffffffffffff16611b5f565b15611a52578373ffffffffffffffffffffffffffffffffffffffff1663150b7a02611912610df3565b8786866040518563ffffffff1660e01b81526004016119349493929190612e1f565b602060405180830381600087803b15801561194e57600080fd5b505af192505050801561197f57506040513d601f19601f8201168201806040525081019061197c9190612e80565b60015b611a02573d80600081146119af576040519150601f19603f3d011682016040523d82523d6000602084013e6119b4565b606091505b506000815114156119fa576040517f08c379a00000000000000000000000000000000000000000000000000000000081526004016119f190612d86565b60405180910390fd5b805181602001fd5b63150b7a0260e01b7bffffffffffffffffffffffffffffffffffffffffffffffffffffffff1916817bffffffffffffffffffffffffffffffffffffffffffffffffffffffff191614915050611a57565b600190505b949350505050565b60606040518060400160405280600781526020017f697066733a2f2f00000000000000000000000000000000000000000000000000815250905090565b6060611aa782610da8565b6000611ab1611a5f565b90506000815111611ad15760405180602001604052806000815250611afc565b80611adb84611b82565b604051602001611aec929190612da6565b6040516020818303038152906040525b915050919050565b611b0e83836111c6565b611b1b60008484846118c8565b611b5a576040517f08c379a0000000000000000000000000000000000000000000000000000000008152600401611b5190612d86565b60405180910390fd5b505050565b6000808273ffffffffffffffffffffffffffffffffffffffff163b119050919050565b60606000821415611bca576040518060400160405280600181526020017f30000000000000000000000000000000000000000000000000000000000000008152509050611cde565b600082905060005b60008214611bfc578080611be590612ead565b915050600a82611bf59190612f25565b9150611bd2565b60008167ffffffffffffffff811115611c1857611c176120c2565b5b6040519080825280601f01601f191660200182016040528015611c4a5781602001600182028036833780820191505090505b5090505b60008514611cd757600182611c639190612a48565b9150600a85611c729190612f56565b6030611c7e9190612a7c565b60f81b818381518110611c9457611c93612f87565b5b60200101907effffffffffffffffffffffffffffffffffffffffffffffffffffffffffffff1916908160001a905350600a85611cd09190612f25565b9450611c4e565b8093505050505b919050565b828054611cef906124be565b90600052602060002090601f016020900481019282611d115760008555611d58565b82601f10611d2a57805160ff1916838001178555611d58565b82800160010185558215611d58579182015b82811115611d57578251825591602001919060010190611d3c565b5b509050611d659190611d69565b5090565b5b80821115611d82576000816000905550600101611d6a565b5090565b6000604051905090565b600080fd5b600080fd5b60007fffffffff0000000000000000000000000000000000000000000000000000000082169050919050565b611dcf81611d9a565b8114611dda57600080fd5b50565b600081359050611dec81611dc6565b92915050565b600060208284031215611e0857611e07611d90565b5b6000611e1684828501611ddd565b91505092915050565b60008115159050919050565b611e3481611e1f565b82525050565b6000602082019050611e4f6000830184611e2b565b92915050565b6000819050919050565b611e6881611e55565b82525050565b6000602082019050611e836000830184611e5f565b92915050565b600081519050919050565b600082825260208201905092915050565b60005b83811015611ec3578082015181840152602081019050611ea8565b83811115611ed2576000848401525b50505050565b6000601f19601f8301169050919050565b6000611ef482611e89565b611efe8185611e94565b9350611f0e818560208601611ea5565b611f1781611ed8565b840191505092915050565b60006020820190508181036000830152611f3c8184611ee9565b905092915050565b611f4d81611e55565b8114611f5857600080fd5b50565b600081359050611f6a81611f44565b92915050565b600060208284031215611f8657611f85611d90565b5b6000611f9484828501611f5b565b91505092915050565b600073ffffffffffffffffffffffffffffffffffffffff82169050919050565b6000611fc882611f9d565b9050919050565b611fd881611fbd565b82525050565b6000602082019050611ff36000830184611fcf565b92915050565b61200281611fbd565b811461200d57600080fd5b50565b60008135905061201f81611ff9565b92915050565b6000806040838503121561203c5761203b611d90565b5b600061204a85828601612010565b925050602061205b85828601611f5b565b9150509250929050565b60008060006060848603121561207e5761207d611d90565b5b600061208c86828701612010565b935050602061209d86828701612010565b92505060406120ae86828701611f5b565b9150509250925092565b600080fd5b600080fd5b7f4e487b7100000000000000000000000000000000000000000000000000000000600052604160045260246000fd5b6120fa82611ed8565b810181811067ffffffffffffffff82111715612119576121186120c2565b5b80604052505050565b600061212c611d86565b905061213882826120f1565b919050565b600067ffffffffffffffff821115612158576121576120c2565b5b61216182611ed8565b9050602081019050919050565b82818337600083830152505050565b600061219061218b8461213d565b612122565b9050828152602081018484840111156121ac576121ab6120bd565b5b6121b784828561216e565b509392505050565b600082601f8301126121d4576121d36120b8565b5b81356121e484826020860161217d565b91505092915050565b6000806040838503121561220457612203611d90565b5b600061221285828601612010565b925050602083013567ffffffffffffffff81111561223357612232611d95565b5b61223f858286016121bf565b9150509250929050565b60006020828403121561225f5761225e611d90565b5b600061226d84828501612010565b91505092915050565b60006020828403121561228c5761228b611d90565b5b600082013567ffffffffffffffff8111156122aa576122a9611d95565b5b6122b6848285016121bf565b91505092915050565b6122c881611e1f565b81146122d357600080fd5b50565b6000813590506122e5816122bf565b92915050565b6000806040838503121561230257612301611d90565b5b600061231085828601612010565b9250506020612321858286016122d6565b9150509250929050565b600067ffffffffffffffff821115612346576123456120c2565b5b61234f82611ed8565b9050602081019050919050565b600061236f61236a8461232b565b612122565b90508281526020810184848401111561238b5761238a6120bd565b5b61239684828561216e565b509392505050565b600082601f8301126123b3576123b26120b8565b5b81356123c384826020860161235c565b91505092915050565b600080600080608085870312156123e6576123e5611d90565b5b60006123f487828801612010565b945050602061240587828801612010565b935050604061241687828801611f5b565b925050606085013567ffffffffffffffff81111561243757612436611d95565b5b6124438782880161239e565b91505092959194509250565b6000806040838503121561246657612465611d90565b5b600061247485828601612010565b925050602061248585828601612010565b9150509250929050565b7f4e487b7100000000000000000000000000000000000000000000000000000000600052602260045260246000fd5b600060028204905060018216806124d657607f821691505b602082108114156124ea576124e961248f565b5b50919050565b7f4552433732313a20617070726f76616c20746f2063757272656e74206f776e6560008201527f7200000000000000000000000000000000000000000000000000000000000000602082015250565b600061254c602183611e94565b9150612557826124f0565b604082019050919050565b6000602082019050818103600083015261257b8161253f565b9050919050565b7f4552433732313a20617070726f76652063616c6c6572206973206e6f7420746f60008201527f6b656e206f776e6572206e6f7220617070726f76656420666f7220616c6c0000602082015250565b60006125de603e83611e94565b91506125e982612582565b604082019050919050565b6000602082019050818103600083015261260d816125d1565b9050919050565b7f4552433732313a2063616c6c6572206973206e6f7420746f6b656e206f776e6560008201527f72206e6f7220617070726f766564000000000000000000000000000000000000602082015250565b6000612670602e83611e94565b915061267b82612614565b604082019050919050565b6000602082019050818103600083015261269f81612663565b9050919050565b600081905092915050565b60006126bc82611e89565b6126c681856126a6565b93506126d6818560208601611ea5565b80840191505092915050565b60006126ee82846126b1565b915081905092915050565b7f4e465420616c7265616479206d696e7465642100000000000000000000000000600082015250565b600061272f601383611e94565b915061273a826126f9565b602082019050919050565b6000602082019050818103600083015261275e81612722565b9050919050565b7f4552433732313a20696e76616c696420746f6b656e2049440000000000000000600082015250565b600061279b601883611e94565b91506127a682612765565b602082019050919050565b600060208201905081810360008301526127ca8161278e565b9050919050565b7f4552433732313a2061646472657373207a65726f206973206e6f74206120766160008201527f6c6964206f776e65720000000000000000000000000000000000000000000000602082015250565b600061282d602983611e94565b9150612838826127d1565b604082019050919050565b6000602082019050818103600083015261285c81612820565b9050919050565b7f4f776e61626c653a206e6577206f776e657220697320746865207a65726f206160008201527f6464726573730000000000000000000000000000000000000000000000000000602082015250565b60006128bf602683611e94565b91506128ca82612863565b604082019050919050565b600060208201905081810360008301526128ee816128b2565b9050919050565b7f4552433732313a207472616e736665722066726f6d20696e636f72726563742060008201527f6f776e6572000000000000000000000000000000000000000000000000000000602082015250565b6000612951602583611e94565b915061295c826128f5565b604082019050919050565b6000602082019050818103600083015261298081612944565b9050919050565b7f4552433732313a207472616e7366657220746f20746865207a65726f2061646460008201527f7265737300000000000000000000000000000000000000000000000000000000602082015250565b60006129e3602483611e94565b91506129ee82612987565b604082019050919050565b60006020820190508181036000830152612a12816129d6565b9050919050565b7f4e487b7100000000000000000000000000000000000000000000000000000000600052601160045260246000fd5b6000612a5382611e55565b9150612a5e83611e55565b925082821015612a7157612a70612a19565b5b828203905092915050565b6000612a8782611e55565b9150612a9283611e55565b9250827fffffffffffffffffffffffffffffffffffffffffffffffffffffffffffffffff03821115612ac757612ac6612a19565b5b828201905092915050565b7f4552433732313a206d696e7420746f20746865207a65726f2061646472657373600082015250565b6000612b08602083611e94565b9150612b1382612ad2565b602082019050919050565b60006020820190508181036000830152612b3781612afb565b9050919050565b7f4552433732313a20746f6b656e20616c7265616479206d696e74656400000000600082015250565b6000612b74601c83611e94565b9150612b7f82612b3e565b602082019050919050565b60006020820190508181036000830152612ba381612b67565b9050919050565b7f45524337323155524953746f726167653a2055524920736574206f66206e6f6e60008201527f6578697374656e7420746f6b656e000000000000000000000000000000000000602082015250565b6000612c06602e83611e94565b9150612c1182612baa565b604082019050919050565b60006020820190508181036000830152612c3581612bf9565b9050919050565b7f4f776e61626c653a2063616c6c6572206973206e6f7420746865206f776e6572600082015250565b6000612c72602083611e94565b9150612c7d82612c3c565b602082019050919050565b60006020820190508181036000830152612ca181612c65565b9050919050565b7f4552433732313a20617070726f766520746f2063616c6c657200000000000000600082015250565b6000612cde601983611e94565b9150612ce982612ca8565b602082019050919050565b60006020820190508181036000830152612d0d81612cd1565b9050919050565b7f4552433732313a207472616e7366657220746f206e6f6e20455243373231526560008201527f63656976657220696d706c656d656e7465720000000000000000000000000000602082015250565b6000612d70603283611e94565b9150612d7b82612d14565b604082019050919050565b60006020820190508181036000830152612d9f81612d63565b9050919050565b6000612db282856126b1565b9150612dbe82846126b1565b91508190509392505050565b600081519050919050565b600082825260208201905092915050565b6000612df182612dca565b612dfb8185612dd5565b9350612e0b818560208601611ea5565b612e1481611ed8565b840191505092915050565b6000608082019050612e346000830187611fcf565b612e416020830186611fcf565b612e4e6040830185611e5f565b8181036060830152612e608184612de6565b905095945050505050565b600081519050612e7a81611dc6565b92915050565b600060208284031215612e9657612e95611d90565b5b6000612ea484828501612e6b565b91505092915050565b6000612eb882611e55565b91507fffffffffffffffffffffffffffffffffffffffffffffffffffffffffffffffff821415612eeb57612eea612a19565b5b600182019050919050565b7f4e487b7100000000000000000000000000000000000000000000000000000000600052601260045260246000fd5b6000612f3082611e55565b9150612f3b83611e55565b925082612f4b57612f4a612ef6565b5b828204905092915050565b6000612f6182611e55565b9150612f6c83611e55565b925082612f7c57612f7b612ef6565b5b828206905092915050565b7f4e487b7100000000000000000000000000000000000000000000000000000000600052603260045260246000fdfea26469706673582212207c6aa14a9d3fc4a6cd48fde2c5a4d6fdd7d7560ea5d5e0680fb9aaa4885e965864736f6c63430008090033",
  "linkReferences": {},
  "deployedLinkReferences": {}
}